S01500004C43445F696E746572666163652E737265632C
S113000012C024C023C022C021C020C01FC01EC0F3
S11300101DC01CC01BC01AC019C018C017C016C010
S113002015C014C013C011241FBECFE5D4E0DEBF39
S1130030CDBF10E0A0E6B0E0EAEFF0E002C005902A
S11300400D92A837B107D9F742D055C0D9CF82BB9A
S1130050A898A99A83EC99E00197F1F700C00000F1
S1130060A998089582BBA89AA99A83EC99E001976C
S1130070F1F700C00000A9980895EF92FF920F9342
S11300801F93CF93DF938C017C01C0E0D0E005C0C7
S1130090F70181917F01E6DF2196F80101900020AC
S11300A0E9F73197E01BF10BCE17DF0788F3DF91F7
S11300B0CF911F910F91FF90EF90089588E3C7DFD0
S11300C086E0C5DF8FE0C3DF81E0C1DF08958FEFF5
S11300D081BB83E084BBF2DF80E8B9DF80E690E097
S11300E09927CBDF80ECB3DF8DE690E09927C5DF5D
S10D00F080E090E00895F894FFCF3B
S11300FA5368756268616D204A61696E00494954A2
S10B010A205061746E610000D5
S9030000FC
