S00D00004144435F322E73726563BE
S113000012C024C023C022C021C020C01FC01EC0F3
S11300101DC01CC01BC01AC019C018C017C016C010
S113002015C014C013C011241FBECFE5D4E0DEBF39
S1130030CDBF10E0A0E6B0E0E6E1F2E002C005903A
S11300400D92A237B107D9F793D0E3C0D9CF92B3B9
S11300509F7092BB92B3282F207F922B92BBA898BB
S1130060A99AE3ECF9E03197F1F700C00000A998F0
S113007092B39F7092BB22B3F0E18F9FC001112411
S1130080822B82BBA99A83EC99E00197F1F700C017
S11300900000A998089592B39F7092BB92B3282F41
S11300A0207F922B92BBA89AA99AE3ECF9E03197AE
S11300B0F1F700C00000A99892B39F7092BB22B3DD
S11300C0F0E18F9FC0011124822B82BBA99A83EC9B
S11300D099E00197F1F700C00000A998089582E320
S11300E0B6DF88E2B4DF86E0B2DF8CE0B0DF81E027
S11300F0AEDF0895CF93DF93EC018881882329F044
S11301002196C9DF89918111FCCFDF91CF910895A8
S1130110CF93DF93EC01D595C795CA38D10514F078
S113012024970EC0C536D10514F0239709C0CE33E9
S1130130D10514F0229704C0C931D1050CF02197E0
S1130140CE0164E670E03ED080E3860FA4DF2AE0AF
S113015030E0CE01B90136D0C82FCB01B90132D07D
S1130160805D99DF80E38C0F96DFDF91CF91089556
S11301708FEF81BB83E084BBB2DF0F2EF2E4FF2E4E
S1130180F02DC3EAD3E4F7B8C6B9369A349BFECF50
S1130190349A04B115B180E85ADF80E690E0AADF12
S11301A0C801B6DFD7B9C6B9369A349BFECF349AA4
S11301B004B115B180EC4BDF89E690E09BDFC80108
S11301C0A7DFE1CF97FB072E16F4009406D077FD46
S11301D008D00BD007FC05D03EF4909581959F4F35
S11301E00895709561957F4F0895AA1BBB1B51E13B
S11301F007C0AA1FBB1FA617B70710F0A61BB70B93
S1130200881F991F5A95A9F780959095BC01CD0137
S10902100895F894FFCFED
S113021654454D5031203A200054454D5032203A31
S10502262000B2
S9030000FC
