:1000000012C019C018C017C016C015C014C013C044
:1000100012C011C010C00FC00EC00DC00CC00BC06C
:100020000AC009C008C011241FBECFE5D4E0DEBF5E
:10003000CDBF56D0ADC0E4CF92B39F7092BB92B308
:10004000282F207F922B92BBA898A99AE3ECF9E085
:100050003197F1F700C00000A99892B39F7092BB4E
:1000600022B3F0E18F9FC0011124822B82BBA99A99
:1000700083EC99E00197F1F700C00000A99808957A
:1000800092B39F7092BB92B3282F207F922B92BB8A
:10009000A89AA99AE3ECF9E03197F1F700C00000C3
:1000A000A99892B39F7092BB22B3F0E18F9FC001D9
:1000B0001124822B82BBA89AA99A83EC99E001971C
:1000C000F1F700C00000A998089582E0B5DF88E24A
:1000D000B3DF86E0B1DF8CE0AFDF81E0ADDF089514
:1000E0008FEF81BB83E084BBF0DF0F2EFAE0EF2EB1
:1000F000F12CF02D80E8A0DFC0E0D0E0CE01B70108
:1001000020D0182F80E3860FBBDF80E3810FB8DF9C
:100110002FE38DE093E0215080409040E1F700C054
:10012000000081E089DF2196C436D10539F72FE33D
:100130008DE093E0215080409040E1F700C0000046
:10014000D9CF97FB072E16F4009406D077FD08D080
:100150000BD007FC05D03EF4909581959F4F0895F4
:10016000709561957F4F0895AA1BBB1B51E107C095
:10017000AA1FBB1FA617B70710F0A61BB70B881F37
:10018000991F5A95A9F780959095BC01CD010895C6
:04019000F894FFCF11
:00000001FF
