:1000000012C03FC018C017C016C015C014C013C01E
:1000100012C011C010C00FC00EC00DC00CC00BC06C
:100020000AC009C008C011241FBECFE5D4E0DEBF5E
:10003000CDBF02D050C0E4CF84E081BB82BB8FEF44
:1000400087BB83E085BF80E48BBF8ABF789441E0A3
:1000500050E080E090E09A01082E02C0220F331F8A
:100060000A94E2F728BB2FE936E861E021503040DE
:100070006040E1F700C0000001968830910559F713
:10008000E8CF1F920F920FB60F9211242F933F9338
:100090004F935F938F939F9398B318BA2AE030E001
:1000A00088B3809588BB4FE956E881E041505040C5
:1000B0008040E1F700C000002150310989F798BB6A
:1000C0009F918F915F914F913F912F910F900FBE14
:0A00D0000F901F901895F894FFCFD1
:00000001FF
