:1000000012C024C023C022C021C020C01FC01EC0F7
:100010001DC01CC01BC01AC019C018C017C016C014
:1000200015C014C013C011241FBECFE5D4E0DEBF3D
:10003000CDBF10E0A0E6B0E0EAE4F1E002C0059038
:100040000D92AA36B107D9F702D07DC0D9CFCF9390
:10005000DF93CDB7DEB72A970FB6F894DEBF0FBE99
:10006000CDBF83E084BB8FEF81BB12BA8AE0E0E6AC
:10007000F0E0DE01119601900D928A95E1F717BA32
:1000800000E010E020E030E06894DD24D1F80F2E8D
:10009000FAE0EF2EF12CF02D41E0B29904C0B29BB2
:1000A000FECF2F5F3F4F2A30310521F40F5F1F4FE6
:1000B00020E030E0D5BAC801B7011ED0E1E0F0E0A1
:1000C000EC0FFD1FE80FF91F808182BB83EC99E0E4
:1000D0000197F1F700C0000045BBE1E0F0E0EC0F54
:1000E000FD1FE20FF31F808182BB81EE94E0019738
:1000F000F1F700C00000D1CF97FB072E16F4009453
:1001000006D077FD08D00BD007FC05D03EF49095C3
:1001100081959F4F0895709561957F4F0895AA1B13
:10012000BB1B51E107C0AA1FBB1FA617B70710F0E2
:10013000A61BB70B881F991F5A95A9F78095909514
:0A014000BC01CD010895F894FFCF33
:0A014A003F065B4F666D7D077F6F77
:00000001FF
