S01200007373645F627574746F6E2E73726563CD
S113000012C024C023C022C021C020C01FC01EC0F3
S11300101DC01CC01BC01AC019C018C017C016C010
S113002015C014C013C011241FBECFE5D4E0DEBF39
S1130030CDBF10E0A0E6B0E0EEECF0E002C0059029
S11300400D92AA36B107D9F702D03FC0D9CFCF93CA
S1130050DF93CDB7DEB72A970FB6F894DEBF0FBE95
S1130060CDBF8FEF81BB12BA8AE0E0E6F0E0DE019B
S1130070119601900D928A95E1F717BA80E090E00D
S113008002C080E090E0B2990BC02FE936E841E06D
S1130090215030404040E1F700C00000B299019681
S11300A0E1E0F0E0EC0FFD1FE80FF91F208122BB17
S11300B0E3ECF9E03197F1F700C000009C012A70ED
S11100C033272A303105F9F6DCCFF894FFCF50
S10D00CE3F065B4F666D7D077F6FF0
S9030000FC
